S016000065436162696E65745F56305F52302E737265632D
S11300000C9434000C94F1000C9451000C945100A5
S11300100C9451000C9451000C9451000C94510018
S11300200C9451000C9451000C9451000C94FC005D
S11300300C9451000C9451000C9451000C945100F8
S11300400C9451000C9451000C9451000C945100E8
S11300500C9451000C9451000C9451000C945100D8
S11300600C9451000C94510011241FBECFEFD8E022
S1130070DEBFCDBF17E0A0E0B1E0E8EBF2E102C0E3
S113008005900D92A832B107D9F727E0A8E2B7E0AE
S113009001C01D92A136B207E1F70E9410010C9431
S11300A05A090C940000EAE7F0E0808187608083BD
S11300B0ACE7B0E08C9180648C938081806880830D
S11300C08081806480830895519A8AB18AB9219A83
S11300D080E388B908950E94640087E690E00E9456
S11300E001050E945A030E9453000E94E8000895EB
S11300F0CF93DF93D62FC42F0E9463038D2F0E94CA
S11301008A038C2F0E948A030E94B203DF91CF914D
S1130110089540E068E184E40E94780043EF69E1D7
S113012084E40E94780046E06AE184E40E94780056
S113013048EA68E186E40E94780043E069E186E4E5
S11301400E94780040E06AE186E40E94780045E578
S113015068E18CE40E94780041E069E18CE40E944B
S1130160780048EA6AE18CE40E9478004AE46BE192
S11301708CE40E9478004DE66CE18CE40E947800E7
S1130180089541E16AE084E40E94780040E16AE075
S113019084E40E947800089540912F074F7B409398
S11301A02F0768E084E40E9478002FEF81EE94E04A
S11301B0215080409040E1F700C0000040912F079B
S11301C0406440932F0768E084E40E947800089517
S11301D0E9E6F0E080818260808380818083E89A10
S11301E008951F920F920FB60F921124E09A0F9068
S11301F00FBE0F901F9018951F920F920FB60F927B
S113020011248F9381E080933407809133078F5FAB
S1130210809333078F910F900FBE0F901F90189506
S11302200E946B000E9454040E9424050E943C0515
S113023078940E94E8048FE99FE00197F1F700C0E9
S113024000000E948900CFEFC0932A074FEF6AE0B5
S11302508CE40E947800C09329074FEF6BE08CE494
S11302600E947800C0932E074FEF68E086E40E9456
S11302707800C0932C074FEF68E08CE40E9478006C
S1130280C0932B074FEF69E08CE40E947800C09381
S11302902D074FEF69E086E40E947800C093280799
S11302A04FEF6CE08CE40E947800C0932F074FEF6F
S11302B068E084E40E9478009FEFE9E6F8E1915059
S11302C0E040F040E1F700C0000040912A074F7A77
S11302D040932A076AE08CE40E9478004091290741
S11302E04A7F409329076BE08CE40E947800409198
S11302F029074F7E409329076BE08CE40E94780025
S1130300409129074F7D409329076BE08CE40E94BC
S1130310780040912E074F7A40932E0768E086E4D8
S11303200E94780040912C07457540932C0768E0A3
S11303308CE40E94780040912B074D7F40932B075B
S113034069E08CE40E94780040912D074B7F409334
S11303502D0769E086E40E947800409129074F77D1
S1130360409329076BE08CE40E94780040912807B1
S11303704D7F409328076CE08CE40E947800409104
S113038028074F7E409328076CE08CE40E94780095
S1130390409128074F77409328076CE08CE40E9433
S11303A0780040912E07497F40932E0768E086E449
S11303B00E94780040912E07487F40932E0768E002
S11303C086E40E94780020E031E045EE56E061E0EA
S11303D08AE00E94200480912E071F928F938FEE53
S11303E096E09F938F9385E397E09F938F930E946A
S11303F0700620E031E045E357E062E08AE00E94C5
S1130400200420E031E04AEF56E063E08AE00E94F5
S1130410200420E031E043E057E064E08AE00E94F9
S1130420200420E031E043E057E065E08AE00E94E8
S1130430200420E031E043E057E066E08AE00E94D7
S1130440200420E031E04CE057E067E08AE00E94BD
S1130450200480E091E00E94CC040F900F900F9054
S11304600F900F900F9003E117E0C5E3D7E0809160
S11304703407882309F41BC1109234078091330791
S11304801F928F931F930F93DF93CF930E94700655
S113049020E031E0AE0161E082E30E9420040E948A
S11304A0C1000E94CC0049EA68E086E40E9478001A
S11304B022E030E04BE457E064E88AE40E94B603AB
S11304C0809332070F2EFBE4EF2EF7E0FF2EF02D82
S11304D0F701608170E0762F66278181682B80E0C8
S11304E090E00E94E20525E732E04AE152E40E94EE
S11304F041050E94B30560933007709331077F93E1
S11305006F931F930F93DF93CF930E94700620E0A5
S113051031E0AE0163E082E30E94200410923107CF
S11305201092300748EA68E086E40E94780022E0EE
S113053030E0A70164E88AE40E94B603809332079E
S1130540F701808190E0982F88272181822B909356
S11305503107809330079F938F931F930F93DF93FB
S1130560CF930E94700620E031E0AE0164E082E3A4
S11305700E94200410923107109230074BEA68E081
S113058086E40E94780022E030E0A70164E88AE46F
S11305900E94B60380933207F701808190E0982F80
S11305A088272181822B90933107809330079F9372
S11305B08F931F930F93DF93CF930E94700620E0D5
S11305C031E0AE0165E082E30E942004109231071D
S11305D0109230074CEA68E086E40E94780022E03A
S11305E030E0A70164E88AE40E94B60380933207EE
S11305F0F701808190E0982F88272181822B9093A6
S11306003107809330079F938F931F930F93DF934A
S1130610CF930E94700620E031E0AE0166E082E3F1
S11306200E94200410923107109230078091320703
S1130630EDB7FEB77E960FB6F894FEBF0FBEEDBFC2
S11306408823B1F01F928F931F930F93DF93CF935F
S11306500E94700620E031E0AE0167E082E30E9470
S113066020040F900F900F900F900F900F9015C0D3
S11306701F921F921F930F93DF93CF930E947006D4
S113068020E031E0AE0167E082E30E9420040F9095
S11306900F900F900F900F900F9080E091E00E94C8
S11306A0CC04809133078F3F11F4109233070E94DA
S11306B02305DDCE1092B90080E38093B80084E076
S11306C08093BC00089594EA9093BC00ECEBF0E0B6
S11306D090819923ECF79091B900987F983011F0AC
S11306E09031A1F48093BB0084E88093BC00ECEBD0
S11306F0F0E080818823ECF79091B900987F9831DD
S113070039F081E0903429F480E0089581E008957F
S113071080E008958093BB0084E88093BC00ECEBF8
S1130720F0E080818823ECF79091B900987F81E014
S1130730983209F480E0089584EC8093BC00ECEBDB
S1130740F0E080818823ECF78091BB00089584E871
S11307508093BC00ECEBF0E080818823ECF780917F
S1130760BB00089584E98093BC000895BF92CF92A2
S1130770DF92EF92FF920F931F93CF93DF93C82FD3
S1130780D62F7A018901880F0E946303811122C048
S11307908D2F0E948A038C2F880F81600E9463032F
S11307A0B82E81111AC00150110951F0E7016701F7
S11307B0C00ED11E0E949C038993CC16DD06D1F78E
S11307C0E701C00FD11F0E94A703888384E98093A7
S11307D0BC0005C0BB24B39402C0BB24B3948B2DCE
S11307E0DF91CF911F910F91FF90EF90DF90CF9009
S11307F0BF90089520E034E0FC01A901119241501A
S11308005040E1F7089550E0FA01EE0FFF1FEE0F9C
S1130810FF1F4E0F5F1FFA01E05AFB4F90E040E8C4
S1130820649F800D911D1124D901A80FB91F05964D
S1130830280F391F81918D93A217B307D9F7089513
S1130840DF92EF92FF920F931F93CF93DF93FA01FE
S11308504081442391F079018F01D62EC82FD0E036
S113086097016D2D8C2F0E940304DF5FF801ED0FBB
S1130870F11D4081CB5F4111F3CFDF91CF911F91E7
S11308800F91FF90EF90DF900895CF93C82F88E7E2
S11308900E94630380E00E948A038C2F0E948A03D3
S11308A00E94B203CF9108958EEA0E94450488EA1B
S11308B00E9445048FE30E94450483ED0E94450491
S11308C080E00E94450480E40E94450481EA0E947D
S11308D0450488EC0E9445048AED0E94450482E1A7
S11308E00E94450481E80E9445048FEC0E9445045F
S11308F084EA0E94450486EA0E94450485ED0E942C
S1130900450480E80E9445048DE80E94450484E182
S11309100E94450480E20E94450480E00E94450450
S113092089ED0E94450481EF0E9445048BED0E94ED
S1130930450480E40E9445048FEA0E94450408951A
S11309401F93CF93DF93182FD62FC42F88E70E94CD
S1130950630380E00E948A03812F0E948A038D2F03
S11309600E948A038C2F0E948A030E94B203DF91A3
S1130970CF911F910895CF93C82F88E70E946303F6
S113098080E40E948A038C2F0E948A030E94B2038F
S11309900E942305CF9108950F931F93CF93DF9364
S11309A08C014FE760E081E20E94A00447E060E030
S11309B082E20E94A004E8011C5F89910E94BB04AA
S11309C0C017D107D1F7DF91CF911F910F910895EF
S11309D010928000E1E8F0E0108288E09DE39093BB
S11309E08900809388008DE0808380E286BBEFE6F7
S11309F0F0E08081826080831092850010928400F0
S1130A0008959093C5008093C40088E98093C10041
S1130A1086E08093C2000895E0ECF0E0908195FFB9
S1130A20FDCF8093C6000895CF93DF93EC018881B6
S1130A30882331F021960E940C0589918111FBCF06
S1130A40DF91CF910895089587EA0E94450480E0DC
S1130A5091E00E94CC042FEF89E698E12150804078
S1130A609040E1F700C0000080E091E00E94FA03AA
S1130A7086EA0E944504089586E197E00E941405E1
S1130A8008950E9455050C9436060E942F0658F0CE
S1130A900E94280640F029F45F3F29F00C941F06B9
S1130AA051110C946A060C9425060E94470668F3BB
S1130AB09923B1F3552391F3951B550BBB27AA2713
S1130AC062177307840738F09F5F5F4F220F331F4D
S1130AD0441FAA1FA9F335D00E2E3AF0E0E832D015
S1130AE091505040E695001CCAF72BD0FE2F29D018
S1130AF0660F771F881FBB1F261737074807AB07EA
S1130B00B0E809F0BB0B802DBF01FF2793585F4F5E
S1130B103AF09E3F510578F00C941F060C946A0637
S1130B205F3FE4F3983ED4F3869577956795B79540
S1130B30F7959F5FC9F7880F911D9695879597F94B
S1130B400895E1E0660F771F881FBB1F62177307C4
S1130B508407BA0720F0621B730B840BBA0BEE1FD9
S1130B6088F7E09508950E944F0688F09F5798F003
S1130B70B92F9927B751B0F0E1F0660F771F881F9E
S1130B80991F1AF0BA95C9F714C0B13091F00E94B8
S1130B906906B1E008950C946906672F782F8827B9
S1130BA0B85F39F0B93FCCF3869577956795B395DF
S1130BB0D9F73EF490958095709561957F4F8F4F4E
S1130BC09F4F0895E89409C097FB3EF49095809553
S1130BD0709561957F4F8F4F9F4F9923A9F0F92FFF
S1130BE096E9BB279395F695879577956795B7957D
S1130BF0F111F8CFFAF4BB0F11F460FF1BC06F5F63
S1130C007F4F8F4F9F4F16C0882311F096E911C074
S1130C10772321F09EE8872F762F05C0662371F095
S1130C2096E8862F70E060E02AF09A95660F771FA9
S1130C30881FDAF7880F9695879597F9089597F99D
S1130C409F6780E870E060E008959FEF80EC08956E
S1130C5000240A9416161706180609060895002497
S1130C600A9412161306140605060895092E039411
S1130C70000C11F4882352F0BB0F40F4BF2B11F485
S1130C8060FF04C06F5F7F4F8F4F9F4F089557FDE4
S1130C909058440F551F59F05F3F71F04795880FE6
S1130CA097FB991F61F09F3F79F08795089512167D
S1130CB013061406551FF2CF4695F1DF08C0161629
S1130CC017061806991FF1CF8695710561050894DA
S1130CD00895E894BB2766277727CB0197F90895F1
S1130CE0AEE0B0E0E6E7F6E00C9431090D891E8928
S1130CF086E08C831A8309838FEF9FE79E838D831D
S1130D00AE01475E5F4F6F89788DCE0101960E94D8
S1130D109206EF81F885E00FF11F10822E96E4E031
S1130D200C944D09ABE0B0E0E8E9F6E00C9423093B
S1130D306C017B018A01FC0117821682838181FF89
S1130D40CCC1CE0101963C01F6019381F70193FDDC
S1130D50859193FF81917F01882309F4BAC185327B
S1130D6039F493FD859193FF81917F01853229F4B4
S1130D70B60190E00E948908E7CF912C212C312CF8
S1130D80FFE1F315D8F08B3279F038F4803279F042
S1130D908332A1F4232D20611DC08D3261F0803394
S1130DA069F4232D216016C0832D8260382EE32D33
S1130DB0E4603E2E2AC0F32DF8601DC037FC2DC020
S1130DC020ED280F2A3040F08E32B9F436FC81C170
S1130DD0232D2064322E19C036FE06C08AE0989E68
S1130DE0200D1124922E11C0EAE02E9E200D112414
S1130DF0222EF32DF0623F2E08C08C3621F4832D71
S1130E008068382E02C0883641F4F70193FD85913D
S1130E1093FF81917F018111B3CF982F9F7D9554CA
S1130E20933028F40C5F1F4F9FE399830DC08336E2
S1130E3031F0833771F0833509F059C021C0F801CE
S1130E40808189830E5F1F4F88248394912C5301E2
S1130E5013C02801F2E04F0E511CF801A080B180AC
S1130E6036FE03C0692D70E002C06FEF7FEFC5014D
S1130E700E947E084C018201F32DFF773F2E16C09D
S1130E80280122E0420E511CF801A080B18036FEF8
S1130E9003C0692D70E002C06FEF7FEFC5010E94AF
S1130EA073084C01F32DF0683F2E820133FC1BC004
S1130EB0822D90E088169906B0F4B60180E290E0A5
S1130EC00E9489082A94F4CFF50137FC859137FEF6
S1130ED081915F01B60190E00E94890821102A9453
S1130EE021E0821A91088114910471F7E8C08436D4
S1130EF011F0893641F5F80137FE07C06081718130
S1130F00828193810C5F1F4F08C060817181072E1D
S1130F10000C880B990B0E5F1F4FF32DFF763F2EAD
S1130F2097FF09C090958095709561957F4F8F4F7D
S1130F309F4FF0683F2E2AE030E0A3010E94C508CD
S1130F40882E861845C0853731F4232D2F7EB22E86
S1130F502AE030E025C0932D997FB92E8F36C1F059
S1130F6018F4883579F0B5C0803719F0883721F046
S1130F70B0C0E92FE061BE2EB4FE0DC0FB2DF460BD
S1130F80BF2E09C034FE0AC0292F2660B22E06C027
S1130F9028E030E005C020E130E002C020E132E08A
S1130FA0F801B7FE07C060817181828193810C5F73
S1130FB01F4F06C06081718180E090E00E5F1F4F7B
S1130FC0A3010E94C508882E8618FB2DFF773F2EAB
S1130FD036FE0DC0232D2E7FA22E891458F434FE24
S1130FE00BC032FC09C0832D8E7EA82E05C0B82C00
S1130FF0A32C03C0B82C01C0B92CA4FE0FC0FE0161
S1131000E80DF11D8081803321F49A2D997EA92E5B
S113101009C0A2FE06C0B394B39404C08A2D867896
S113102009F0B394A3FC11C0A0FE06C0B21488F466
S1131030280C922C9B180EC0B21460F4B60180E206
S113104090E00E948908B394F7CFB21418F42B18D7
S113105002C0982C212CA4FE10C0B60180E390E0BD
S11310600E948908A2FE17C0A1FC03C088E790E093
S113107002C088E590E0B6010CC08A2D867859F04C
S1131080A1FE02C08BE201C080E2A7FC8DE2B601A2
S113109090E00E948908891438F4B60180E390E056
S11310A00E9489089A94F7CF8A94F301E80DF11D00
S11310B08081B60190E00E9489088110F5CF22203A
S11310C009F442CEB60180E290E00E9489082A9495
S11310D0F6CFF6018681978102C08FEF9FEF2B96A2
S11310E0E2E10C943F09FC0105906150704001104D
S11310F0D8F7809590958E0F9F1F0895FC0161503D
S1131100704001900110D8F7809590958E0F9F1F25
S113111008950F931F93CF93DF93FB01238121FD48
S113112003C08FEF9FEF2CC022FF16C0468157816A
S1131130248135814217530744F4A081B1819D0174
S11311402F5F3F4F318320838C93268137812F5F1C
S11311503F4F3783268314C08B01EC01FB010084CD
S1131160F185E02D0995892BE1F6D80116968D912C
S11311709C911797019617969C938E931697CE0180
S1131180DF91CF911F910F910895FA01AA2728307A
S113119051F1203181F1E8946F936E7F6E5F7F4F40
S11311A08F4F9F4FAF4FB1E03ED0B4E03CD0670FBC
S11311B0781F891F9A1FA11D680F791F8A1F911D0F
S11311C0A11D6A0F711D811D911DA11D20D009F45F
S11311D068943F912AE0269F11243019305D3193A1
S11311E0DEF6CF010895462F4770405D4193B3E08A
S11311F00FD0C9F7F6CF462F4F70405D4A3318F031
S1131200495D31FD4052419302D0A9F7EACFB4E0E1
S1131210A6959795879577956795BA95C9F7009799
S11312206105710508959B01AC010A2E069457953A
S1131230479537952795BA95C9F7620F731F841F91
S1131240951FA01D08952F923F924F925F926F9227
S11312507F928F929F92AF92BF92CF92DF92EF9242
S1131260FF920F931F93CF93DF93CDB7DEB7CA1BC3
S1131270DB0B0FB6F894DEBF0FBECDBF09942A88EE
S1131280398848885F846E847D848C849B84AA8496
S1131290B984C884DF80EE80FD800C811B81AA8123
S11312A0B981CE0FD11D0FB6F894DEBF0FBECDBFEE
S10B12B0ED010895F894FFCF4D
S11312B80000000404000000000404000000000012
S11312C80000000000000000000000000000000012
S11312D80000000000000000000000000000000002
S11312E800000000000000000000000000000000F2
S11312F800000000000000000000000000000000E2
S113130800000000000000000000000000000000D1
S113131820302010D40C0470F0043CFCE0000000E1
S1131328FCFC0000000000000000000000000000B9
S11313380001BFFFFFFFFFFFFFFFFFFFFF7FBFBFEE
S1131348FFDF7FEFEFFFCF6F3F879FCFC7EFEFE759
S11313587777F7F7D7F7FEFEEEE6E6FEFEFEFEF633
S1131368F6E64686E6E6F6F2FAFEFEFEFEFEFEFE29
S1131378FEFEF6E6C6CE06060E3E7EFEFEEE060629
S113138886868686868686860606060606060606F1
S1131398040CFCF8000F400007980003F8823000A2
S11313A80107000000000000000000000000000029
S11313B80000BFFFFFFFFFFFFFFFFFFFFFFFFFFF6F
S11313C8E5B373F3F2F1FCEEE7E3C347C746C7C7D7
S11313D8C7C7C3C1C1C1C1C1C1C1C0C0C0C0C0C0E9
S11313E8C000FEFF7F070301C1C1018101C10001E3
S11313F8410101031FFFFFF800008081C7E3E0E615
S11314086341C1A10D0D496D2D4D093979FD6D0853
S11314180C0C0D0D0900000000000000013FF880CD
S113142800000000000000000000000000000000B0
S11314380050FFFFDFDFDFDDDFFFFF3F9B1FF7E328
S1131448F1F1F8F9FCFCFCFCFDFCFCF9FAF6E6C643
S1131458FEFE0E060606060606060606FEFEFE3E08
S11314681E1C1B7FFFD07878787838F9E10068F87B
S11314781C1C9E1A0480FFFFFFE773131F0707074E
S113148807070707DF9E9E9E6C200006CCEE8F00A0
S11314980002000000000000000000000000010736
S11314A810800000000000000000000000000000A0
S11314B800006464E464E0E0FC3CC10EC0FFFFFF8C
S11314C8FF7F0783E3B1B1B1E1C18101F1F1D9F142
S11314D8E30F3E10E0F0F8F8F00000F0FF3F3F00A3
S11314E80060203C33737FF28000E06778303879FD
S11314F87370700101FFFFFFF3000C0C0C0C4C001F
S113150800089CBCFF3C0180000000003B10000068
S113151800000000000000000000000000000000BF
S113152802FF0000000000000000000000000000AE
S11315380022E7F7F7EE67EFF3F8E2FCFFFFEFFFAF
S1131548DFE06063E3E363E3D3C9C9C8CDCDEDF954
S1131558101080F3FFFFFFFF0000F8FFFF6F8313F5
S11315686B07830662EEFEC1838F9F1E3C32B2F284
S1131578F1F8FAFEFFFFFFFEEFFCF020061E18004C
S1131588101C8EE7F1F0E197000031660C1C70E046
S113159880000000000000000000000000000000BF
S11315A8FEFF000000000000000000000000000032
S11315B800607F7F7F3FDFCFF7F7FBF9FCFCFCFF80
S11315C8EEFEFEFEDFFFF8F8B1B3A3A7A3E3F3F83A
S11315D8F8F293F7E7E7FFE3E0FEFFFF6FD9800037
S11315E803BFFAC9010307CF9FFFFFFEFCFF1F03D8
S11315F8010101FF8F0E070309608410040383832C
S113160803013F4361FF4F07C7FE3E0EACF00001E4
S1131618E3CF1C3870E0C080000000000000000028
S1131628FFFF0000000000000000000000000000B0
S113163800003E3E3F3F3F3F3F3F3F3F3F3F3D3F30
S11316483F3F3F3F3F3F3F3F3F3F2F2F37373F3FCE
S11316583F3F3F3D3B3F3F3F3F3F3F3F0B312A34F6
S113166824003F7F3C3C213339393F3F3F0700008A
S113167800203F3F0300063E100020000000010147
S1131688000020000020183C3F3F00000B3F3000C2
S11316980F3F3F1E3C3923071E3C3C200420040016
S11316A83F3F0000000000000000000000000000B0
S11316B8000000000000004F0000000700070014AD
S11316C87F147F14242A7F2A12231308646236495C
S11316D85522500005030000001C2241000041224D
S11316E81C0014083E081408083E0808005030007E
S11316F800080808080800606000002010080402B8
S11317083E5149453E00427F4000426151494621CD
S113171841454B311814127F1027454545393C4A39
S11317284949300171090503364949493606494989
S1131738291E0036360000005636000008142241DF
S11317480014141414140041221408020151090647
S1131758324979413E7E1111117E7F494949363E0D
S1131768414141227F4141221C7F494949417F0926
S11317780909013E4149497A7F0808087F00417FE9
S113178841002040413F017F081422417F404040EE
S1131798407F020C027F7F0408107F3E4141413E96
S11317A87F090909063E4151215E7F0919294646E8
S11317B84949493101017F01013F4040403F1F2011
S11317C840201F3F4038403F6314081463070870E3
S11317D808076151494543007F414100020408104C
S11317E8200041417F00040201020440404040407F
S11317F8010204000020545454787F484444383883
S113180844444420384444487F3854545418087E87
S1131818090102064949493F7F0804047800447DC8
S113182840002040443D007F1028440000417F4090
S1131838007C0418047C7C08040478384444443844
S11318487C14141408081414187C7C08040408482C
S113185854545420043F4440203C4040207C1C20E5
S113186840201C3C4030403C44281028440C505034
S1131878503C4464544C44000836410000007F0046
S11318880000413608000201020402080C0E0C088C
S1131898081838180852756E6E696E673A20004247
S11318A8305F457870323A257800566F6C746167FA
S11318B8653A0043757272656E743A004572726FC8
S11318C8723A0025640048656C6C6F206D79206657
S10B18D87269656E640D0000E5
S9030000FC
