S016000065436162696E65745F56305F52302E737265632D
S11300000C9434000C94B0000C9451000C945100E6
S11300100C9451000C9451000C9451000C94510018
S11300200C9451000C9451000C9451000C94BB009E
S11300300C9451000C9451000C9451000C945100F8
S11300400C9451000C9451000C9451000C945100E8
S11300500C9451000C9451000C9451000C945100D8
S11300600C9451000C94510011241FBECFEFD8E022
S1130070DEBFCDBF17E0A0E0B1E0E2EEFCE002C0DD
S113008005900D92A231B107D9F727E0A2E1B7E0BC
S113009001C01D92A434B207E1F70E94CF000C9472
S11300A06F060C940000EAE7F0E0808187608083AB
S11300B0ACE7B0E08C9180648C938081806880830D
S11300C08081806480830895519A8AB18AB9219A83
S11300D080E388B908950E94640087E690E00E9456
S11300E04C030E94F4010E9453000E94A70008954B
S11300F0CF93DF93D62FC42F0E94FD018D2F0E9432
S113010024028C2F0E9424020E944102DF91CF918D
S11301100895CF93DF93C82F880F0E94FD0184E8D0
S11301200E9424028C2F0E94FD010E943602C2E12B
S1130130D7E090E0998388830E94360290E09B8305
S11301408A830E944102CE01DF91CF910895E9E6AE
S1130150F0E080818260808380818083E89A0895C2
S11301601F920F920FB60F921124E09A0F900FBEB8
S11301700F901F9018951F920F920FB60F92112493
S11301808F9381E080931907809118078F5F809384
S113019018078F910F900FBE0F901F9018950E9413
S11301A06B000E949F020E946F030E94870361E01C
S11301B08AE00E948C03809118071F928F9385EE2A
S11301C096E09F938F93CAE1D7E0DF93CF930E9489
S11301D0970320E031E0AE0161E082E30E946B020C
S11301E080E091E00E94170378940E943303EFE9C2
S11301F0FFE03197F1F700C0000040E068E184E4DB
S11302000E94780043EF69E184E40E94780046E0AC
S11302106AE184E40E94780048EA68E186E40E9486
S1130220780043E069E186E40E94780040E06AE1F6
S113023086E40E94780045E568E18CE40E94780039
S113024041E069E18CE40E94780048EA6AE18CE4C8
S11302500E947800809116071F928F9388EE96E093
S11302609F938F93DF93CF930E94970320E031E015
S1130270AE0162E08AE00E946B0280E091E00E949D
S113028017038FEF99E6E8E181509040E040E1F7F1
S113029000C00000CFEFC09316074FEF68E086E47C
S11302A00E947800C09317074FEF68E084E40E942F
S11302B07800FFEF23EC89E0F15020408040E1F723
S11302C000C00000409116074F7A4093160768E07B
S11302D086E40E9478009FEFE3ECF9E09150E0405F
S11302E0F040E1F700C000004091160740654093DC
S11302F0160768E086E40E9478002FEF83EC99E00B
S1130300215080409040E1F700C000004091160762
S11303104F7A4093160768E086E40E947800EDB7B0
S1130320FEB73C960FB6F894FEBF0FBEEDBF03EFC9
S113033016E0CAE1D7E080911907882309F451C077
S113034041E16AE084E40E94780040E16AE084E4E8
S11303500E947800409117074F7B4093170768E08D
S113036084E40E947800FFEF21EE84E0F150204005
S11303708040E1F700C000004091170740644093BB
S1130380170768E084E40E9478001092190760E07F
S11303908AE40E94890090932F0780932E07FC0122
S11303A021812F9380818F931F930F93DF93CF939A
S11303B00E94970320E031E0AE0161E082E30E94F5
S11303C06B0280E091E00E9417030F900F900F9052
S11303D00F900F900F90809118078F3F11F4109297
S11303E018070E946E03A7CF1092B90080E3809390
S11303F0B80084E08093BC00089594EA9093BC0014
S1130400ECEBF0E090819923ECF79091B900987FA0
S1130410983011F09031A1F48093BB0084E880936C
S1130420BC00ECEBF0E080818823ECF79091B900FC
S1130430987F983139F081E0903429F480E0089570
S113044081E0089580E008958093BB0084E8809360
S1130450BC00ECEBF0E080818823ECF79091B900CC
S1130460987F81E0983209F480E0089584EC8093C9
S1130470BC00ECEBF0E080818823ECF78091BB00BA
S1130480089584E98093BC00089520E034E0FC01E1
S1130490A901119241505040E1F7089550E0FA014A
S11304A0EE0FFF1FEE0FFF1F4E0F5F1FFA01E05A02
S11304B0FB4F90E040E8649F800D911D1124D90109
S11304C0A80FB91F0596280F391F81918D93A21784
S11304D0B307D9F70895DF92EF92FF920F931F931A
S11304E0CF93DF93FA014081442391F079018F0186
S11304F0D62EC82FD0E097016D2D8C2F0E944E026E
S1130500DF5FF801ED0FF11D4081CB5F4111F3CFA7
S1130510DF91CF911F910F91FF90EF90DF9008959D
S1130520CF93C82F88E70E94FD0180E00E94240237
S11305308C2F0E9424020E944102CF9108958EEADA
S11305400E94900288EA0E9490028FE30E94900227
S113055083ED0E94900280E00E94900280E40E9459
S1130560900281EA0E94900288EC0E9490028AED37
S11305700E94900282E10E94900281E80E9490020F
S11305808FEC0E94900284EA0E94900286EA0E9404
S1130590900285ED0E94900280E80E9490028DE80E
S11305A00E94900284E10E94900280E20E949002E4
S11305B080E00E94900289ED0E94900281EF0E94E7
S11305C090028BED0E94900280E40E9490028FEAD8
S11305D00E94900208951F93CF93DF93182FD62F74
S11305E0C42F88E70E94FD0180E00E942402812F2D
S11305F00E9424028D2F0E9424028C2F0E94240228
S11306000E944102DF91CF911F910895CF93C82F8B
S113061088E70E94FD0180E40E9424028C2F0E943E
S113062024020E9441020E946E03CF9108950F9309
S11306301F93CF93DF938C014FE760E081E20E9428
S1130640EB0247E060E082E20E94EB02E8011C5FFB
S113065089910E940603C017D107D1F7DF91CF918A
S11306601F910F91089510928000E1E8F0E010824C
S113067088E09DE390938900809388008DE08083D7
S113068080E286BBEFE6F0E0808182608083109296
S113069085001092840008959093C5008093C4004F
S11306A088E98093C10086E08093C2000895E0EC5D
S11306B0F0E0908195FFFDCF8093C6000895CF931D
S11306C0DF93EC018881882331F021960E9457033F
S11306D089918111FBCFDF91CF910895089587EA25
S11306E00E94900280E091E00E9417032FEF83EDB7
S11306F090E3215080409040E1F700C0000080E08A
S113070091E00E94450286EA0E949002089586EFD5
S113071096E00E945F03089520E031E048E057E04E
S11307200E946B0280E091E00E9417030895AEE0FE
S1130730B0E0EDE9F3E00C9446060D891E8986E0ED
S11307408C831A8309838FEF9FE79E838D83AE0189
S1130750475E5F4F6F89788DCE0101960E94BA0380
S11307602F813885F801E20FF31F10822E96E4E002
S11307700C946206ACE0B0E0E0ECF3E00C943806D4
S11307807C016B018A01FC0117821682838181FF3F
S1130790BDC1CE0101964C01F7019381F60193FD91
S11307A0859193FF81916F01882309F4ABC1853250
S11307B039F493FD859193FF81916F01853229F47A
S11307C0B70190E00E94A205E7CF512C312C20E024
S11307D02032A0F48B3269F030F4803259F0833245
S11307E069F420612CC08D3239F0803339F42160F2
S11307F026C02260246023C0286021C027FD27C0B2
S113080030ED380F3A3078F426FF06C0FAE05F9EE8
S1130810300D1124532E13C08AE0389E300D11245C
S1130820332E20620CC08E3221F426FD6BC120646D
S113083006C08C3611F4206802C0883641F4F601F3
S113084093FD859193FF81916F018111C1CF982F01
S11308509F7D9554933028F40C5F1F4FFFE3F98379
S11308600DC0833631F0833771F0833509F05BC0F6
S113087022C0F801808189830E5F1F4F4424439472
S1130880512C540115C03801F2E06F0E711CF801AF
S1130890A080B18026FF03C0652D70E002C06FEF19
S11308A07FEFC5012C870E9497052C0183012C85BD
S11308B02F77222E17C03801F2E06F0E711CF80159
S11308C0A080B18026FF03C0652D70E002C06FEFE9
S11308D07FEFC5012C870E948C052C012C85206894
S11308E0222E830123FC1BC0832D90E04816590659
S11308F0B0F4B70180E290E00E94A2053A94F4CFEC
S1130900F50127FC859127FE81915F01B70190E0F5
S11309100E94A20531103A94F1E04F1A5108411493
S1130920510471F7E5C0843611F0893639F5F801C0
S113093027FF07C060817181828193810C5F1F4F03
S113094008C060817181072E000C880B990B0E5F23
S11309501F4F2F76722E97FF09C090958095709542
S113096061957F4F8F4F9F4F2068722E2AE030E0B1
S1130970A4010E94DA05A82EA81844C0853729F4DA
S11309802F7EB22E2AE030E025C0F22FF97FBF2E51
S11309908F36C1F018F4883579F0B4C0803719F077
S11309A0883721F0AFC02F2F2061B22EB4FE0DC0C6
S11309B08B2D8460B82E09C024FF0AC09F2F966037
S11309C0B92E06C028E030E005C020E130E002C0C6
S11309D020E132E0F801B7FE07C0608171818281B5
S11309E093810C5F1F4F06C06081718180E090E0AD
S11309F00E5F1F4FA4010E94DA05A82EA818FB2D34
S1130A00FF777F2E76FE0BC0372D3E7FA51450F462
S1130A1074FE0AC072FC08C0372D3E7E05C0BA2C95
S1130A20372D03C0BA2C01C0B52C34FF0DC0FE0114
S1130A30EA0DF11D8081803311F4397E09C032FF43
S1130A4006C0B394B39404C0832F867809F0B3949A
S1130A5033FD13C030FF06C05A2CB31418F4530CE2
S1130A605B18B32CB31468F4B70180E290E03C87C0
S1130A700E94A205B3943C85F5CFB31410F43B183F
S1130A8001C0312C34FF12C0B70180E390E03C87F1
S1130A900E94A2053C8532FF17C031FD03C088E7E0
S1130AA090E002C088E590E0B7010CC0832F8678FF
S1130AB059F031FF02C08BE201C080E237FD8DE2C4
S1130AC0B70190E00E94A205A51438F4B70180E3B1
S1130AD090E00E94A2055A94F7CFAA94F401EA0D7B
S1130AE0F11D8081B70190E00E94A205A110F5CF0D
S1130AF0332009F451CEB70180E290E00E94A205B0
S1130B003A94F6CFF7018681978102C08FEF9FEF69
S1130B102C96E2E10C945406FC010590615070405F
S1130B200110D8F7809590958E0F9F1F0895FC01B2
S1130B306150704001900110D8F7809590958E0F08
S1130B409F1F08950F931F93CF93DF93FB0123817E
S1130B5021FD03C08FEF9FEF28C022FF16C04681FE
S1130B605781248135814217530744F4A081B18110
S1130B709D012F5F3F4F318320838C9326813781E2
S1130B802F5F3F4F3783268310C0EB01092F182FA7
S1130B900084F185E02D0995892BE1F68E819F81F2
S1130BA001969F838E83812F902FDF91CF911F9188
S1130BB00F910895FA01AA27283051F1203181F1CB
S1130BC0E8946F936E7F6E5F7F4F8F4F9F4FAF4F51
S1130BD0B1E03ED0B4E03CD0670F781F891F9A1F64
S1130BE0A11D680F791F8A1F911DA11D6A0F711D18
S1130BF0811D911DA11D20D009F468943F912AE024
S1130C00269F11243019305D3193DEF6CF0108950B
S1130C10462F4770405D4193B3E00FD0C9F7F6CF3C
S1130C20462F4F70405D4A3318F0495D31FD405204
S1130C30419302D0A9F7EACFB4E0A695979587959A
S1130C4077956795BA95C9F7009761057105089579
S1130C509B01AC010A2E0694579547953795279525
S1130C60BA95C9F7620F731F841F951FA01D0895BD
S1130C702F923F924F925F926F927F928F929F92A8
S1130C80AF92BF92CF92DF92EF92FF920F931F9396
S1130C90CF93DF93CDB7DEB7CA1BDB0B0FB6F89447
S1130CA0DEBF0FBECDBF09942A88398848885F8487
S1130CB06E847D848C849B84AA84B984C884DF80F8
S1130CC0EE80FD800C811B81AA81B981CE0FD11DDC
S1130CD00FB6F894DEBF0FBECDBFED010895F894B2
S1050CE0FFCF40
S1130CE200000004040000000004040000000000EE
S1130CF200000000000000000000000000000000EE
S1130D0200000000000000000000000000000000DD
S1130D1200000000000000000000000000000000CD
S1130D2200000000000000000000000000000000BD
S1130D3200000000000000000000000000000000AD
S1130D4220302010D40C0470F0043CFCE0000000BD
S1130D52FCFC000000000000000000000000000095
S1130D620001BFFFFFFFFFFFFFFFFFFFFF7FBFBFCA
S1130D72FFDF7FEFEFFFCF6F3F879FCFC7EFEFE735
S1130D827777F7F7D7F7FEFEEEE6E6FEFEFEFEF60F
S1130D92F6E64686E6E6F6F2FAFEFEFEFEFEFEFE05
S1130DA2FEFEF6E6C6CE06060E3E7EFEFEEE060605
S1130DB286868686868686860606060606060606CD
S1130DC2040CFCF8000F400007980003F88230007E
S1130DD20107000000000000000000000000000005
S1130DE20000BFFFFFFFFFFFFFFFFFFFFFFFFFFF4B
S1130DF2E5B373F3F2F1FCEEE7E3C347C746C7C7B3
S1130E02C7C7C3C1C1C1C1C1C1C1C0C0C0C0C0C0C4
S1130E12C000FEFF7F070301C1C1018101C10001BE
S1130E22410101031FFFFFF800008081C7E3E0E6F0
S1130E326341C1A10D0D496D2D4D093979FD6D082F
S1130E420C0C0D0D0900000000000000013FF880A9
S1130E52000000000000000000000000000000008C
S1130E620050FFFFDFDFDFDDDFFFFF3F9B1FF7E304
S1130E72F1F1F8F9FCFCFCFCFDFCFCF9FAF6E6C61F
S1130E82FEFE0E060606060606060606FEFEFE3EE4
S1130E921E1C1B7FFFD07878787838F9E10068F857
S1130EA21C1C9E1A0480FFFFFFE773131F0707072A
S1130EB207070707DF9E9E9E6C200006CCEE8F007C
S1130EC20002000000000000000000000000010712
S1130ED2108000000000000000000000000000007C
S1130EE200006464E464E0E0FC3CC10EC0FFFFFF68
S1130EF2FF7F0783E3B1B1B1E1C18101F1F1D9F11E
S1130F02E30F3E10E0F0F8F8F00000F0FF3F3F007E
S1130F120060203C33737FF28000E06778303879D8
S1130F227370700101FFFFFFF3000C0C0C0C4C00FA
S1130F3200089CBCFF3C0180000000003B10000044
S1130F42000000000000000000000000000000009B
S1130F5202FF00000000000000000000000000008A
S1130F620022E7F7F7EE67EFF3F8E2FCFFFFEFFF8B
S1130F72DFE06063E3E363E3D3C9C9C8CDCDEDF930
S1130F82101080F3FFFFFFFF0000F8FFFF6F8313D1
S1130F926B07830662EEFEC1838F9F1E3C32B2F260
S1130FA2F1F8FAFEFFFFFFFEEFFCF020061E180028
S1130FB2101C8EE7F1F0E197000031660C1C70E022
S1130FC2800000000000000000000000000000009B
S1130FD2FEFF00000000000000000000000000000E
S1130FE200607F7F7F3FDFCFF7F7FBF9FCFCFCFF5C
S1130FF2EEFEFEFEDFFFF8F8B1B3A3A7A3E3F3F816
S1131002F8F293F7E7E7FFE3E0FEFFFF6FD9800012
S113101203BFFAC9010307CF9FFFFFFEFCFF1F03B3
S1131022010101FF8F0E0703096084100403838307
S113103203013F4361FF4F07C7FE3E0EACF00001C0
S1131042E3CF1C3870E0C080000000000000000004
S1131052FFFF00000000000000000000000000008C
S113106200003E3E3F3F3F3F3F3F3F3F3F3F3D3F0C
S11310723F3F3F3F3F3F3F3F3F3F2F2F37373F3FAA
S11310823F3F3F3D3B3F3F3F3F3F3F3F0B312A34D2
S113109224003F7F3C3C213339393F3F3F07000066
S11310A200203F3F0300063E100020000000010123
S11310B2000020000020183C3F3F00000B3F30009E
S11310C20F3F3F1E3C3923071E3C3C2004200400F2
S11310D23F3F00000000000000000000000000008C
S11310E2000000000000004F000000070007001489
S11310F27F147F14242A7F2A122313086462364938
S11311025522500005030000001C22410000412228
S11311121C0014083E081408083E08080050300059
S11311220008080808080060600000201008040293
S11311323E5149453E00427F4000426151494621A9
S113114241454B311814127F1027454545393C4A15
S11311524949300171090503364949493606494965
S1131162291E0036360000005636000008142241BB
S11311720014141414140041221408020151090623
S1131182324979413E7E1111117E7F494949363EE9
S1131192414141227F4141221C7F494949417F0902
S11311A20909013E4149497A7F0808087F00417FC5
S11311B241002040413F017F081422417F404040CA
S11311C2407F020C027F7F0408107F3E4141413E72
S11311D27F090909063E4151215E7F0919294646C4
S11311E24949493101017F01013F4040403F1F20ED
S11311F240201F3F4038403F6314081463070870BF
S113120208076151494543007F4141000204081027
S1131212200041417F00040201020440404040405A
S1131222010204000020545454787F48444438385E
S113123244444420384444487F3854545418087E63
S1131242090102064949493F7F0804047800447DA4
S113125240002040443D007F1028440000417F406C
S1131262007C0418047C7C08040478384444443820
S11312727C14141408081414187C7C080404084808
S113128254545420043F4440203C4040207C1C20C1
S113129240201C3C4030403C44281028440C505010
S11312A2503C4464544C44000836410000007F0022
S11312B20000413608000201020402080C0E0C0868
S11312C2081838180825690042305F457870323AA8
S11312D225780025640048656C6C6F206D79206662
S11312E27269656E64200A0052756E6E696E673AA1
S10512F22000D6
S9030000FC
