S016000065436162696E65745F56305F52302E737265632D
S11300000C9434000C94B0000C9451000C945100E6
S11300100C9451000C9451000C9451000C94510018
S11300200C9451000C9451000C9451000C94BB009E
S11300300C9451000C9451000C9451000C945100F8
S11300400C9451000C9451000C9451000C945100E8
S11300500C9451000C9451000C9451000C945100D8
S11300600C9451000C94510011241FBECFEFD8E022
S1130070DEBFCDBF17E0A0E0B1E0EEEFFCE002C0D0
S113008005900D92A231B107D9F727E0A2E1B7E0BC
S113009001C01D92A234B207E1F70E94CF000C9474
S11300A07D060C940000EAE7F0E08081876080839D
S11300B0ACE7B0E08C9180648C938081806880830D
S11300C08081806480830895519A8AB18AB9219A83
S11300D080E388B908950E94640087E690E00E9456
S11300E048030E94F0010E9453000E94A700089553
S11300F0CF93DF93D62FC42F0E94F9018D2F0E9436
S113010020028C2F0E9420020E943D02DF91CF9199
S11301100895CF93DF93C82F880F0E94F90184E8D4
S11301200E9420028C2F0E94F9010E943202C2E137
S1130130D7E090E0998388830E94320290E09B8309
S11301408A830E943D02CE01DF91CF910895E9E6B2
S1130150F0E080818260808380818083E89A0895C2
S11301601F920F920FB60F921124E09A0F900FBEB8
S11301700F901F9018951F920F920FB60F92112493
S11301808F9381E080931907809118078F5F809384
S113019018078F910F900FBE0F901F9018950E9413
S11301A06B000E949B020E946B030E94830361E028
S11301B08AE00E948803809118071F928F9385EE2E
S11301C096E09F938F93CAE1D7E0DF93CF930E9489
S11301D0930320E031E0AE0161E082E30E94670214
S11301E080E091E00E94130378940E942F03EFE9CA
S11301F0FFE03197F1F700C0000040E068E184E4DB
S11302000E94780043EF69E184E40E94780046E0AC
S11302106AE184E40E94780048EA68E186E40E9486
S1130220780043E069E186E40E94780040E06AE1F6
S113023086E40E94780045E568E18CE40E94780039
S113024041E069E18CE40E94780048EA6AE18CE4C8
S11302500E947800809116071F928F9388EE96E093
S11302609F938F93DF93CF930E94930320E031E019
S1130270AE0162E08AE00E94670280E091E00E94A1
S113028013038FEF99E6E8E181509040E040E1F7F5
S113029000C00000CFEFC09316074FEF68E086E47C
S11302A00E947800C09317074FEF68E084E40E942F
S11302B07800FFEF23EC89E0F15020408040E1F723
S11302C000C00000409116074F7A4093160768E07B
S11302D086E40E9478009FEFE3ECF9E09150E0405F
S11302E0F040E1F700C000004091160740654093DC
S11302F0160768E086E40E9478002FEF83EC99E00B
S1130300215080409040E1F700C000004091160762
S11303104F7A4093160768E086E40E947800EDB7B0
S1130320FEB73C960FB6F894FEBF0FBEEDBF03EFC9
S113033016E0CAE1D7E080911907882309F44DC07B
S113034041E16AE084E40E94780040E16AE084E4E8
S11303500E947800409117074F7B4093170768E08D
S113036084E40E947800FFEF21EE84E0F150204005
S11303708040E1F700C000004091170740644093BB
S1130380170768E084E40E9478001092190760E07F
S11303908AE40E948900FC0121812F9380818F933C
S11303A01F930F93DF93CF930E94930320E031E0D8
S11303B0AE0161E082E30E94670280E091E00E9466
S11303C013030F900F900F900F900F900F90809148
S11303D018078F3F11F4109218070E946A03ABCFDD
S11303E01092B90080E38093B80084E08093BC004D
S11303F0089594EA9093BC00ECEBF0E0908199238B
S1130400ECF79091B900987F983011F09031A1F4F5
S11304108093BB0084E88093BC00ECEBF0E0808127
S11304208823ECF79091B900987F983139F081E0F6
S1130430903429F480E0089581E0089580E00895DF
S11304408093BB0084E88093BC00ECEBF0E08081F7
S11304508823ECF79091B900987F81E0983209F4F1
S113046080E0089584EC8093BC00ECEBF0E08081A4
S11304708823ECF78091BB00089584E98093BC0045
S1130480089520E034E0FC01A9011192415050404C
S1130490E1F7089550E0FA01EE0FFF1FEE0FFF1F82
S11304A04E0F5F1FFA01E05AFB4F90E040E8649F53
S11304B0800D911D1124D901A80FB91F0596280F8D
S11304C0391F81918D93A217B307D9F70895DF924D
S11304D0EF92FF920F931F93CF93DF93FA01408122
S11304E0442391F079018F01D62EC82FD0E09701D3
S11304F06D2D8C2F0E944A02DF5FF801ED0FF11D74
S11305004081CB5F4111F3CFDF91CF911F910F91C8
S1130510FF90EF90DF900895CF93C82F88E70E9453
S1130520F90180E00E9420028C2F0E9420020E9488
S11305303D02CF9108958EEA0E948C0288EA0E94BF
S11305408C028FE30E948C0283ED0E948C0280E077
S11305500E948C0280E40E948C0281EA0E948C0238
S113056088EC0E948C028AED0E948C0282E10E9437
S11305708C0281E80E948C028FEC0E948C0284EA37
S11305800E948C0286EA0E948C0285ED0E948C02F5
S113059080E80E948C028DE80E948C0284E10E9413
S11305A08C0280E20E948C0280E00E948C0289ED21
S11305B00E948C0281EF0E948C028BED0E948C02BF
S11305C080E40E948C028FEA0E948C0208951F939B
S11305D0CF93DF93182FD62FC42F88E70E94F901F9
S11305E080E00E942002812F0E9420028D2F0E9411
S11305F020028C2F0E9420020E943D02DF91CF91A5
S11306001F910895CF93C82F88E70E94F90180E4D1
S11306100E9420028C2F0E9420020E943D020E9410
S11306206A03CF9108950F931F93CF93DF938C01A7
S11306304FE760E081E20E94E70247E060E082E287
S11306400E94E702E8011C5F89910E940203C0171F
S1130650D107D1F7DF91CF911F910F910895109297
S11306608000E1E8F0E0108288E09DE39093890047
S1130670809388008DE0808380E286BBEFE6F0E023
S11306808081826080831092850010928400089596
S11306909093C5008093C40088E98093C10086E0EC
S11306A08093C2000895E0ECF0E0908195FFFDCFC7
S11306B08093C6000895CF93DF93EC01888188234B
S11306C031F021960E94530389918111FBCFDF9170
S11306D0CF910895089587EA0E948C0280E091E00A
S11306E00E9413032FEF83ED90E32150804090404C
S11306F0E1F700C0000080E091E00E94410286EA38
S11307000E948C02089586EF96E00E945B03089590
S113071020E031E048E057E00E94670280E091E089
S11307200E9413030895AEE0B0E0E9E9F3E00C940D
S113073054060D891E8986E08C831A8309838FEF02
S11307409FE79E838D83AE01475E5F4F6F89788DEF
S1130750CE0101960E94B503EF81F885E00FF11FE9
S113076010822E96E4E00C947006ABE0B0E0EBEB64
S1130770F3E00C9446066C017B018A01FC011782AC
S11307801682838181FFCCC1CE0101963C01F60122
S11307909381F70193FD859193FF81917F018823D4
S11307A009F4BAC1853239F493FD859193FF81919F
S11307B07F01853229F4B60190E00E94AC05E7CFB1
S11307C0912C212C312CFFE1F315D8F08B3279F0E8
S11307D038F4803279F08332A1F4232D20611DC0D6
S11307E08D3261F0803369F4232D216016C0832D8E
S11307F08260382EE32DE4603E2E2AC0F32DF8608B
S11308001DC037FC2DC020ED280F2A3040F08E3259
S1130810B9F436FC81C1232D2064322E19C036FE72
S113082006C08AE0989E200D1124922E11C0EAE0A1
S11308302E9E200D1124222EF32DF0623F2E08C08F
S11308408C3621F4832D8068382E02C0883641F41A
S1130850F70193FD859193FF81917F018111B3CFBE
S1130860982F9F7D9554933028F40C5F1F4F9FE37E
S113087099830DC0833631F0833771F0833509F0E5
S113088059C021C0F801808189830E5F1F4F8824DD
S11308908394912C530113C02801F2E04F0E511C94
S11308A0F801A080B18036FE03C0692D70E002C05B
S11308B06FEF7FEFC5010E94A1054C018201F32D6A
S11308C0FF773F2E16C0280122E0420E511CF8018A
S11308D0A080B18036FE03C0692D70E002C06FEFC6
S11308E07FEFC5010E9496054C01F32DF0683F2E61
S11308F0820133FC1BC0822D90E088169906B0F467
S1130900B60180E290E00E94AC052A94F4CFF50190
S113091037FC859137FE81915F01B60190E00E941A
S1130920AC0521102A9421E0821A910881149104C3
S113093071F7E8C0843611F0893641F5F80137FEC5
S113094007C060817181828193810C5F1F4F08C051
S113095060817181072E000C880B990B0E5F1F4F6D
S1130960F32DFF763F2E97FF09C0909580957095E3
S113097061957F4F8F4F9F4FF0683F2E2AE030E004
S1130980A3010E94E805882E861845C0853731F4F6
S1130990232D2F7EB22E2AE030E025C0932D997F9F
S11309A0B92E8F36C1F018F4883579F0B5C0803788
S11309B019F0883721F0B0C0E92FE061BE2EB4FEF3
S11309C00DC0FB2DF460BF2E09C034FE0AC0292FD0
S11309D02660B22E06C028E030E005C020E130E0F9
S11309E002C020E132E0F801B7FE07C060817181E6
S11309F0828193810C5F1F4F06C06081718180E00A
S1130A0090E00E5F1F4FA3010E94E805882E861810
S1130A10FB2DFF773F2E36FE0DC0232D2E7FA22EF9
S1130A20891458F434FE0BC032FC09C0832D8E7E29
S1130A30A82E05C0B82CA32C03C0B82C01C0B92C17
S1130A40A4FE0FC0FE01E80DF11D8081803321F466
S1130A509A2D997EA92E09C0A2FE06C0B394B39420
S1130A6004C08A2D867809F0B394A3FC11C0A0FEBB
S1130A7006C0B21488F4280C922C9B180EC0B21431
S1130A8060F4B60180E290E00E94AC05B394F7CF25
S1130A90B21418F42B1802C0982C212CA4FE10C0F8
S1130AA0B60180E390E00E94AC05A2FE17C0A1FC51
S1130AB003C088E790E002C088E590E0B6010CC06E
S1130AC08A2D867859F0A1FE02C08BE201C080E233
S1130AD0A7FC8DE2B60190E00E94AC05891438F4BD
S1130AE0B60180E390E00E94AC059A94F7CF8A9413
S1130AF0F301E80DF11D8081B60190E00E94AC0580
S1130B008110F5CF222009F442CEB60180E290E0B4
S1130B100E94AC052A94F6CFF6018681978102C023
S1130B208FEF9FEF2B96E2E10C946206FC01059097
S1130B30615070400110D8F7809590958E0F9F1FDB
S1130B400895FC016150704001900110D8F7809520
S1130B5090958E0F9F1F08950F931F93CF93DF934C
S1130B60FB01238121FD03C08FEF9FEF2CC022FFE7
S1130B7016C046815781248135814217530744F4B6
S1130B80A081B1819D012F5F3F4F318320838C93DE
S1130B90268137812F5F3F4F3783268314C08B0113
S1130BA0EC01FB010084F185E02D0995892BE1F628
S1130BB0D80116968D919C911797019617969C9340
S1130BC08E931697CE01DF91CF911F910F910895C7
S1130BD0FA01AA27283051F1203181F1E8946F936A
S1130BE06E7F6E5F7F4F8F4F9F4FAF4FB1E03ED010
S1130BF0B4E03CD0670F781F891F9A1FA11D680FAE
S1130C00791F8A1F911DA11D6A0F711D811D911DE0
S1130C10A11D20D009F468943F912AE0269F112455
S1130C203019305D3193DEF6CF010895462F4770B9
S1130C30405D4193B3E00FD0C9F7F6CF462F4F7014
S1130C40405D4A3318F0495D31FD4052419302D072
S1130C50A9F7EACFB4E0A695979587957795679518
S1130C60BA95C9F700976105710508959B01AC0118
S1130C700A2E06945795479537952795BA95C9F73F
S1130C80620F731F841F951FA01D08952F923F921A
S1130C904F925F926F927F928F929F92AF92BF9288
S1130CA0CF92DF92EF92FF920F931F93CF93DF9334
S1130CB0CDB7DEB7CA1BDB0B0FB6F894DEBF0FBE91
S1130CC0CDBF09942A88398848885F846E847D84DE
S1130CD08C849B84AA84B984C884DF80EE80FD80E0
S1130CE00C811B81AA81B981CE0FD11D0FB6F89456
S1110CF0DEBF0FBECDBFED010895F894FFCF17
S1130CFE00000004040000000004040000000000D2
S1130D0E00000000000000000000000000000000D1
S1130D1E00000000000000000000000000000000C1
S1130D2E00000000000000000000000000000000B1
S1130D3E00000000000000000000000000000000A1
S1130D4E0000000000000000000000000000000091
S1130D5E20302010D40C0470F0043CFCE0000000A1
S1130D6EFCFC000000000000000000000000000079
S1130D7E0001BFFFFFFFFFFFFFFFFFFFFF7FBFBFAE
S1130D8EFFDF7FEFEFFFCF6F3F879FCFC7EFEFE719
S1130D9E7777F7F7D7F7FEFEEEE6E6FEFEFEFEF6F3
S1130DAEF6E64686E6E6F6F2FAFEFEFEFEFEFEFEE9
S1130DBEFEFEF6E6C6CE06060E3E7EFEFEEE0606E9
S1130DCE86868686868686860606060606060606B1
S1130DDE040CFCF8000F400007980003F882300062
S1130DEE01070000000000000000000000000000E9
S1130DFE0000BFFFFFFFFFFFFFFFFFFFFFFFFFFF2F
S1130E0EE5B373F3F2F1FCEEE7E3C347C746C7C796
S1130E1EC7C7C3C1C1C1C1C1C1C1C0C0C0C0C0C0A8
S1130E2EC000FEFF7F070301C1C1018101C10001A2
S1130E3E410101031FFFFFF800008081C7E3E0E6D4
S1130E4E6341C1A10D0D496D2D4D093979FD6D0813
S1130E5E0C0C0D0D0900000000000000013FF8808D
S1130E6E0000000000000000000000000000000070
S1130E7E0050FFFFDFDFDFDDDFFFFF3F9B1FF7E3E8
S1130E8EF1F1F8F9FCFCFCFCFDFCFCF9FAF6E6C603
S1130E9EFEFE0E060606060606060606FEFEFE3EC8
S1130EAE1E1C1B7FFFD07878787838F9E10068F83B
S1130EBE1C1C9E1A0480FFFFFFE773131F0707070E
S1130ECE07070707DF9E9E9E6C200006CCEE8F0060
S1130EDE00020000000000000000000000000107F6
S1130EEE1080000000000000000000000000000060
S1130EFE00006464E464E0E0FC3CC10EC0FFFFFF4C
S1130F0EFF7F0783E3B1B1B1E1C18101F1F1D9F101
S1130F1EE30F3E10E0F0F8F8F00000F0FF3F3F0062
S1130F2E0060203C33737FF28000E06778303879BC
S1130F3E7370700101FFFFFFF3000C0C0C0C4C00DE
S1130F4E00089CBCFF3C0180000000003B10000028
S1130F5E000000000000000000000000000000007F
S1130F6E02FF00000000000000000000000000006E
S1130F7E0022E7F7F7EE67EFF3F8E2FCFFFFEFFF6F
S1130F8EDFE06063E3E363E3D3C9C9C8CDCDEDF914
S1130F9E101080F3FFFFFFFF0000F8FFFF6F8313B5
S1130FAE6B07830662EEFEC1838F9F1E3C32B2F244
S1130FBEF1F8FAFEFFFFFFFEEFFCF020061E18000C
S1130FCE101C8EE7F1F0E197000031660C1C70E006
S1130FDE800000000000000000000000000000007F
S1130FEEFEFF0000000000000000000000000000F2
S1130FFE00607F7F7F3FDFCFF7F7FBF9FCFCFCFF40
S113100EEEFEFEFEDFFFF8F8B1B3A3A7A3E3F3F8F9
S113101EF8F293F7E7E7FFE3E0FEFFFF6FD98000F6
S113102E03BFFAC9010307CF9FFFFFFEFCFF1F0397
S113103E010101FF8F0E07030960841004038383EB
S113104E03013F4361FF4F07C7FE3E0EACF00001A4
S113105EE3CF1C3870E0C0800000000000000000E8
S113106EFFFF000000000000000000000000000070
S113107E00003E3E3F3F3F3F3F3F3F3F3F3F3D3FF0
S113108E3F3F3F3F3F3F3F3F3F3F2F2F37373F3F8E
S113109E3F3F3F3D3B3F3F3F3F3F3F3F0B312A34B6
S11310AE24003F7F3C3C213339393F3F3F0700004A
S11310BE00203F3F0300063E100020000000010107
S11310CE000020000020183C3F3F00000B3F300082
S11310DE0F3F3F1E3C3923071E3C3C2004200400D6
S11310EE3F3F000000000000000000000000000070
S11310FE000000000000004F00000007000700146D
S113110E7F147F14242A7F2A12231308646236491B
S113111E5522500005030000001C2241000041220C
S113112E1C0014083E081408083E0808005030003D
S113113E0008080808080060600000201008040277
S113114E3E5149453E00427F40004261514946218D
S113115E41454B311814127F1027454545393C4AF9
S113116E4949300171090503364949493606494949
S113117E291E00363600000056360000081422419F
S113118E0014141414140041221408020151090607
S113119E324979413E7E1111117E7F494949363ECD
S11311AE414141227F4141221C7F494949417F09E6
S11311BE0909013E4149497A7F0808087F00417FA9
S11311CE41002040413F017F081422417F404040AE
S11311DE407F020C027F7F0408107F3E4141413E56
S11311EE7F090909063E4151215E7F0919294646A8
S11311FE4949493101017F01013F4040403F1F20D1
S113120E40201F3F4038403F6314081463070870A2
S113121E08076151494543007F414100020408100B
S113122E200041417F00040201020440404040403E
S113123E010204000020545454787F484444383842
S113124E44444420384444487F3854545418087E47
S113125E090102064949493F7F0804047800447D88
S113126E40002040443D007F1028440000417F4050
S113127E007C0418047C7C08040478384444443804
S113128E7C14141408081414187C7C0804040848EC
S113129E54545420043F4440203C4040207C1C20A5
S11312AE40201C3C4030403C44281028440C5050F4
S11312BE503C4464544C44000836410000007F0006
S11312CE0000413608000201020402080C0E0C084C
S11312DE081838180825690042305F457870323A8C
S11312EE25780025640048656C6C6F206D79206646
S11312FE7269656E64200A0052756E6E696E673A85
S105130E2000B9
S9030000FC
